:020000040800F2
:10000000F8060020050100084F0500084705000814
:100010004B050008710200083F0D000800000000B9
:10002000000000000000000000000000D1090008EE
:100030007502000800000000B9080008BD0A0008A9
:100040001F0100081F0100081F0100081F01000810
:100050001F0100081F0100081F0100081F01000800
:100060001F0100081F0100081F0100081F010008F0
:100070001F0100081F0100081F0100081F010008E0
:100080001F0100081F0100081F0100081F010008D0
:100090001F0100081F0100081F0100081F010008C0
:1000A0001F0100081F0100081F0100081F010008B0
:1000B0001F0100081F0100081F0100081F010008A0
:1000C0001F0100081F0100081F0100081F01000890
:1000D0001F0100081F010008210B00081F01000874
:1000E0001F0100081F0100081F010008DFF810D0E1
:1000F00000F070F80048004709120008AFF30080D4
:10010000F80600200648804706480047FEE7FEE75D
:10011000FEE7FEE7FEE7FEE7FEE7FEE7FEE7FEE7B7
:10012000C10A0008ED000008D2B201E000F8012B7E
:10013000491EFBD270470022F6E710B513460A4667
:1001400004461946FFF7F0FF204610BD30B50546BE
:100150002A460B4612F8010B13F8014B08B1A042D6
:10016000F8D01CB1002802D06D1CF1E7284630BD44
:100170002DE9F05F0546002092469B4688460646DC
:10018000814640241BE0284641464746224600F06F
:1001900042F853465A46C01A914110D311461846A8
:1001A000224600F029F82D1A67EB01084F46224637
:1001B0000120002100F020F817EB00094E41201E1D
:1001C000A4F10104DFDC484631462A464346BDE837
:1001D000F09F0000064C074D06E0E06840F0010388
:1001E00094E8070098471034AC42F6D3FFF782FF3B
:1001F000241B0008441B0008202A04DB203A00FAD4
:1002000002F1002070479140C2F1200320FA03F36D
:10021000194390407047202A04DB203A21FA02F06B
:100220000021704721FA02F3D040C2F12002914030
:1002300008431946704730B58C1810F8012B12F09E
:100240000F0301D110F8013B120906D110F8012B60
:1002500003E010F8015B01F8015B5B1EF9D101E0DE
:1002600001F8013B521EFBD1A142E6D3002030BD74
:1002700000BFFEE7704700B5034603E04FF47A7015
:1002800000F005F8181EA3F10103F7D100BD00EB43
:10029000C001C9004FF0E0225161002191610521A8
:1002A000116100BF4FF0E021096901F4803100299C
:1002B000F8D004214FF0E022116170470149C86075
:1002C000704700000020024030B5044604254FF47A
:1002D000302000F089F80546042D17D10C4800693C
:1002E00040F002000A49086108464461006940F094
:1002F000400008614FF4302000F076F805460448CD
:10030000006941F6FD71084001490861284630BD89
:100310000020024004200B49C96801F0010109B125
:1003200001200EE00749C96801F0040109B102206B
:1003300007E00449C96801F0100109B1032000E099
:1003400004207047002002400348006940F080000C
:100350000149086170470000002002400549096812
:1003600021F01001034A1160114609680143116030
:10037000704700000020024070B504460D46042678
:10038000F00200F031F80646042E11D10948006948
:1003900040F00100074908612580F00200F024F8D0
:1003A00006460448006941F6FE71084001490861AB
:1003B000304670BD0020024001460020034A10680C
:1003C00000F0380008431060704700000020024031
:1003D0000248034948600348486070472301674565
:1003E00000200240AB89EFCD00B502460423FFF7A1
:1003F00091FF034603E0FFF78DFF0346521E012BDA
:1004000001D1002AF7D102B90523184600BD2DE914
:10041000F04102460025002600200023002400278A
:1004200091F803C00CF00F0591F803C00CF0100C0C
:10043000BCF1000F03D091F802C04CEA050591F819
:1004400000C0BCF1000F31D0146800202BE04FF049
:10045000010C0CFA00F3B1F800C00CEA03069E424E
:1004600020D183004FF00F0C0CFA03F7BC4305FAC0
:1004700003FC4CEA040491F803C0BCF1280F06D138
:100480004FF0010C0CFA00FCC2F814C00AE091F81D
:1004900003C0BCF1480F05D14FF0010C0CFA00FC71
:1004A000C2F810C0401C0828D1D31460B1F800C0B5
:1004B000BCF1FF0F34DD546800202EE000F1080C81
:1004C0004FF0010808FA0CF3B1F800C00CEA03067B
:1004D0009E4221D183004FF00F0C0CFA03F7BC436E
:1004E00005FA03FC4CEA040491F803C0BCF1280FA0
:1004F00005D100F1080C08FA0CF8C2F8148091F844
:1005000003C0BCF1480F07D100F1080C4FF00108FF
:1005100008FA0CF8C2F81080401C0828CED35460AA
:10052000BDE8F08141617047016170474FF6FF718E
:100530000180022181700421C17070470AB10161FC
:1005400000E04161704700BFFEE700BFFEE7704773
:1005500070B5002100230F22C47804B3154C246821
:1005600004F4E064C4F5E064210AC1F10403CA4064
:10057000447804FA03F184781440214309010E4CB5
:100580000678A155047804F01F050124AC400578D5
:100590006D11AD0005F1E025C5F8004109E00478D2
:1005A00004F01F050124AC40044D0678761145F88F
:1005B000264070BD0CED00E000E400E080E100E0CA
:1005C00002490143024A1160704700000000FA0529
:1005D0000CED00E070B500240EE00021204600F094
:1005E000E6F8002504E0002000F056F9681CC5B2CA
:1005F000802DF8DB601CC4B2082CEEDB70BD00005F
:1006000008B50121082000F069F914208DF80300D5
:1006100003208DF802004FF48070ADF800006946A9
:100620000A48FFF7F4FE4FF40070ADF80000694689
:100630000648FFF7ECFE012211020448FFF77EFF97
:10064000012251020148FFF779FF08BD000C01406B
:1006500070B50546002415E08020204100EA05021F
:100660004FF400710E48FFF769FF012211020C4898
:10067000FFF764FF00224FF480710948FFF75EFF27
:10068000601CC4B2082CE7DB012211020448FFF70A
:1006900055FF00224FF480710148FFF74FFF70BDF6
:1006A000000C014010B5012251020A48FFF746FF35
:1006B000012211020748FFF741FF00224FF40071A9
:1006C0000448FFF73BFF00224FF480710148FFF719
:1006D00035FF10BD000C014010B500224FF4007131
:1006E0000648FFF72BFF012211020448FFF726FFFF
:1006F000012251020148FFF721FF10BD000C01400B
:1007000070B5002406E0002500E06D1CB5F57A7F89
:10071000FBD3641CB4F57A7FF5D3FFF771FFAE20ED
:1007200000F0AAF8D52000F0A7F8802000F0A4F887
:10073000A82000F0A1F83F2000F09EF8D32000F0A0
:100740009BF8002000F098F8402000F095F8A120D8
:1007500000F092F8C82000F08FF8DA2000F08CF852
:10076000122000F089F8812000F086F8CF2000F0F8
:1007700083F8D92000F080F8F12000F07DF8DB202C
:1007800000F07AF8302000F077F8A42000F074F838
:10079000A62000F071F88D2000F06EF8142000F013
:1007A0006BF8AF2000F068F8FFF714FF70BD70B56C
:1007B00005460C4645F0B00000F05EF8102141EA15
:1007C000141000F059F804F00F0000F055F870BD57
:1007D0002DE9F04106460F4615467A1ED206110E47
:1007E000721E5206100EFFF7E2FF002410E0A5F182
:1007F0002001164A02EB0111085D00F04DF8A5F149
:100800002000124901EB001010F80480601CC4B2F3
:10081000082CECDB7A1ED206110E721E012303EBAC
:100820004202D0B2FFF7C3FF00240BE0A5F1200184
:10083000064A02EB011204F10801505C00F02CF8AA
:10084000601CC4B2082CF1DBBDE8F0811215000871
:100850002DE9F04107460E461546002407E02A5DC3
:100860003019C1B23846FFF7B3FF601CC4B2285D2F
:100870000028F4D1BDE8F08110B50446FFF712FF5F
:100880007820FFF7E5FE0020FFF7E2FE2046FFF7A5
:10089000DFFEFFF721FF10BD10B50446FFF702FF92
:1008A0007820FFF7D5FE4020FFF7D2FE2046FFF765
:1008B000CFFEFFF711FF10BD7047000029B1064AB7
:1008C000D2690243044BDA6104E0034AD2698243ED
:1008D000014BDA61704700000010024029B1064A5E
:1008E00092690243044B9A6104E0034A926982438D
:1008F000014B9A61704700000010024030B50021A2
:100900000022002400232D4D6D6805F00C0121B15B
:10091000042905D0082923D105E0294D056022E0EE
:10092000274D05601FE0254D6D6805F47012234DBD
:100930006D6805F48034022505EB92421CB9214D07
:10094000554305600BE01D4D6D6805F400351DB184
:100950001C4D5543056002E0194D5543056002E00A
:10096000174D056000BF00BF144D6D6805F0F00124
:100970000909154D6B5C0568DD4045600F4D6D68DC
:1009800005F4E061090A104D6B5C4568DD40856047
:100990000A4D6D6805F46051C90A0B4D6B5C4568E2
:1009A000DD40C560054D6D6805F44041890B074D7C
:1009B0006B5CC568B5FBF3F5056130BD0010024006
:1009C00000127A0000093D007E0200208E02002005
:1009D000704710B500F002F810BD00000CB5002003
:1009E000019000903348006840F48030314908603D
:1009F00000BF3048006800F4003000900198401CAF
:100A00000190009818B90198B0F5A06FF1D129486C
:100A1000006800F4003010B10120009001E00020D7
:100A200000900098012843D12348006840F010004E
:100A3000214908600846006820F003000860084665
:100A4000006840F0020008601A4840681949486090
:100A50000846406848600846406840F48060486046
:100A60000846406820F47C1048600846406840F41E
:100A7000E81048600846006840F08070086000BFD9
:100A80000C48006800F000700028F9D00948406860
:100A900020F00300074948600846406840F0020023
:100AA000486000BF0348406800F00C000828F9D1F6
:100AB0000CBD000000100240002002407047000002
:100AC00010B51348006840F001001149086008465D
:100AD0004068104908400E494860084600680E49C1
:100AE00008400B4908600846006820F48020086030
:100AF0000846406820F4FE0048604FF41F008860FC
:100B0000FFF767FF4FF000600449086010BD000068
:100B1000001002400000FFF8FFFFF6FE08ED00E0C5
:100B200010B540F225510C4800F044F898B10A483D
:100B300000F0FCF8C4B244B10848094909784454AB
:100B400007480078401C0649087040F225510248C9
:100B500000F008F800BF10BD0044004094020020DF
:100B60005802002010B50022002340F66A14A1426A
:100B700000D100BF0A1201249440A3B2DC430480D8
:100B800010BD21B1828942F40052828104E0828941
:100B90004DF6FF731A408281704702460020B1F57E
:100BA000007F00D100BF13880B400BB1012000E093
:100BB0000020704770B50246002400230025002065
:100BC00040F66A16B14200D100BFC1F3421501F0F0
:100BD0001F03012606FA03F3012D02D19689334043
:100BE00006E0022D02D1168A334001E0968A334096
:100BF0000C12012606FA04F41688344013B10CB125
:100C0000012000E0002070BDF0B50346002400265E
:100C10000025002040F66A17B94200D100BF1846EF
:100C2000C1F3421401F01F06012707FA06F5012C53
:100C300001D10C3004E0022C01D1103000E014305E
:100C40001AB107682F43076002E00768AF430760E7
:100C5000F0BD00002DE9F04786B005460E460024A1
:100C6000A24600BFA1460027B08900B100BF2F46B1
:100C70002C8A4CF6FF700440F08804432C82AC8927
:100C80004EF6F3100440B088318908437189084357
:100C90000443AC81AC8A4FF6FF400440B089044362
:100CA000AC8201A8FFF72AFE1F48874202D1DDF877
:100CB00010A001E0DDF80CA0A88900F4004040B1CC
:100CC0000AEBCA0000EB0A1031684900B0FBF1F8EA
:100CD00007E00AEBCA0000EB0A1031688900B0FB9C
:100CE000F1F86420B8FBF0F004012009642101FB55
:100CF0001089A88900F4004040B1322000EBC900FF
:100D0000B0FBF1F000F00700044308E0322000EBF4
:100D100009106421B0FBF1F000F00F0004432C81B6
:100D200006B0BDE8F0870000003801400146888821
:100D3000C0F308007047C1F308028280704700BF0B
:100D4000FEE700000FB4084B10B504A902AA0398EF
:100D500000F01CF8044602A9002000F042FA2046E8
:100D600010BC5DF814FB0000E311000802E008C8A5
:100D7000121F08C1002AFAD170477047002001E015
:100D800001C1121F002AFBD1704700002DE9FF4F5F
:100D90008DB00F460546002606E025280BD0DDE97C
:100DA0000F1290476D1C761C28780028F5D111B0E1
:100DB0003046BDE8F08F0024A246A1460122E94951
:100DC00000E0044315F8013F203B02FA03F008421B
:100DD000F7D128782A2810D06FF02F022878A0F1B8
:100DE0003001092914D80AEB8A0102EB410144F0D1
:100DF000020400EB010A6D1CF0E701CF5FEA000A74
:100E000003D544F40054CAF1000A44F002046D1CF6
:100E100028782E2817D115F8010F44F004042A2849
:100E20000ED06FF02F022878A0F1300109290AD8DE
:100E300009EB890102EB410100EB01096D1CF2E7AE
:100E400057F8049B6D1C28786C280FD006DC4C28C2
:100E500017D068280DD06A2814D104E0742810D067
:100E60007A280FD10DE044F400140AE044F4801411
:100E700001E044F440146978814202D104F5801401
:100E80006D1C6D1C28786E281ED00CDC632830D0B9
:100E900004DC00288BD0582811D19FE0642867D04B
:100EA00069280CD164E073282DD004DC6F2872D03F
:100EB000702804D194E075286ED078286DD0DDE9D3
:100EC0000F129047761C4BE1C4F30250022806D063
:100ED000032809D0042801CF09D0066040E101CFE2
:100EE000F117C0E900613BE101CF068038E10670EF
:100EF00036E117F8040B8DF8000000208DF8010092
:100F0000EB46012003E057F804BB4FF0FF306107C8
:100F10004FF0000102D40DE008F101018846494577
:100F20000FDA8045F8DB1BF808100029F4D108E03F
:100F300008F1010188468142FADB1BF808100029FC
:100F4000F6D1DDE90F23AAEB08008146214600F027
:100F500031F9304400EB080604E0DDE90F121BF81C
:100F6000010B9047B8F10108F7D221464846F2E05C
:100F70000A21C4F302524FF0000B0891022A04D058
:100F800001CFC117032A09D00AE0FF1D27F0070788
:100F9000F7E8020108E02CE01EE01FE000B2C117F4
:100FA000042A01D140B2C117021E71F1000206DA13
:100FB0000023D0EB030063EB01012D2202E02205A8
:100FC00004D52B228DF82420012203E0E20701D072
:100FD0002022F7E7904653E00A210BE0102109E0B8
:100FE00010214FF0000B44F004044FF00809089161
:100FF00003E008214FF0000B0891C4F30252022ACB
:1010000004D001CF0021032A06D006E0FF1D27F0FF
:101010000707F7E8020103E080B2042A00D1C0B25A
:101020004FF0000822072BD52A78702A07D0DDF868
:1010300020C08CF0100C5CEA0B0C05D00EE04022B6
:101040008DF82420012208E050EA010306D0302365
:101050008DF824308DF8252002229046089B83F0DD
:10106000080353EA0B030BD150EA010201D16207D6
:1010700006D530228DF824204FF00108A9F101098E
:101080002A78582A04D038A20B9208AA0A920BE0B8
:101090003AA2F9E75B46089AFFF76AF80B9B9B5C5C
:1010A0000A9A521E0A92137050EA0102F2D10A986B
:1010B000ADEB000000F1200B600702D524F4803472
:1010C00001E04FF00109D94502DDA9EB0B0000E07A
:1010D000002000EB0B0141440890AAEB010AE00359
:1010E00006D4DDE90F232146504600F063F806449C
:1010F0004FF0000908E009A911F80900DDE90F1215
:10110000904709F10109761CC145F4DBE0030CD5D9
:10111000DDE90F232146504600F04CF8064404E078
:10112000DDE90F1230209047761C0899481E089080
:101130000029F5DC08E00A980A990078491C0A9110
:10114000DDE90F129047761CBBF10001ABF1010BFA
:10115000F1DC21465046DDE90F2300F019F8064482
:101160006D1C21E609280100303132333435363721
:1011700038396162636465660000000030313233E3
:101180003435363738394142434445460000000083
:101190002DE9F041044600251E461746880404D474
:1011A00005E039462020B0476D1C641EF9D528465D
:1011B000BDE8F0812DE9F041044600251E46904629
:1011C000C80301D5302700E02027880404D505E0B6
:1011D00041463846B0476D1C641EF9D52846BDE827
:1011E000F0810A68531C0B60107070472DE9F041C4
:1011F00004460D46164644F001042746314628466B
:10120000B847BDE8F081000086B0002400BF01218E
:101210000C20FFF763FB01214804FFF74FFB4FF45D
:10122000A060FFF7CDF905A8FFF780F94020ADF8E1
:10123000140010208DF8170003208DF8160005A962
:101240005448FFF7E4F840215248FFF76BF980203B
:10125000ADF8140005A94F48FFF7D9F880214D4893
:10126000FFF762F90420ADF8140018208DF817007C
:1012700005A94948FFF7CBF80820ADF81400042071
:101280008DF8170005A94448FFF7C1F8FFF738FAB1
:1012900026208DF8000003208DF8010000208DF835
:1012A000020001208DF803006846FFF751F94FF462
:1012B000E13001900020ADF80800ADF80A00ADF86B
:1012C0000C00ADF810000C20ADF80E0001A9334859
:1012D000FFF7C0FC01213148FFF753FC012240F227
:1012E00025512E48FFF790FC0220FFF765F80120FA
:1012F000FFF734F8FFF76CF83420FEF7DFFF2848DB
:10130000FEF7E2FF00BF08E0264A32F81410244A34
:1013100002EB4400FFF730F8641C102CF4D3FFF705
:1013200013F821A201210846FFF792FA31E000F0FC
:101330004DF82148007821490978884220D00025BD
:101340001BE005EB45001E4951F82000A0B105EB5C
:10135000450051F820001949097888420CD105EB65
:101360004501174A02EB8101486800F0CBF81348A9
:1013700000781149087002E06D1C322DE1DB08E0B5
:1013800010A201210320FFF763FA4FF47A70FEF7F1
:1013900072FFCCE7000C014000080140004400400F
:1013A00000F000085E02002048656C6C6F2C205332
:1013B000544D3332210000005D020020590200200C
:1013C000000000204E6F20617070000010B586B0E4
:1013D00023A12648FEF7BAFE00283FD06421234807
:1013E000FEF7A9FE00202249087022A000F062F852
:1013F00000242DE004EB4400264951F8200028B3D6
:1014000004EB440051F8202023A101A8FFF79AFC27
:1014100001A800F04FF804EB44001E4901EB8000E6
:101420001FA1426801A8FFF78DFC01A800F042F857
:1014300004EB4400174901EB80001BA1826801A85E
:10144000FFF780FC01A800F035F800E002E0641C22
:10145000322CCFDB00BF012006B010BD0020FBE71F
:10146000617070206C6973740000000094020020A9
:101470005802002069642020202061647265737323
:10148000202020206261636B6164726573730D0AB2
:101490000000000000000020617070256420000042
:1014A00030782530385820003078253038580D0AEB
:1014B0000000000070B50446002500BF0BE0615D30
:1014C0000748FFF738FC00BF40210548FFF765FBE0
:1014D0000028F9D06D1C605D0028F0D170BD0000BF
:1014E0000044004010B503A201210320FFF7B0F92A
:1014F00010BD000048656C6C6F2C2053544D333286
:101500002100000070B5044644F001042546A847B8
:1015100070BD00000000000000000000000000009E
:101520000000000000F80000000000000033300060
:10153000000000100C06100C060000000000000067
:10154000000040C07840C0784000043F04043F04DD
:101550000400007088FC08300000001820FF211EE5
:101560000000F008F000E018000000211C031E211C
:101570001E0000F00888700000001E212324192797
:10158000211010160E0000000000000000000000F6
:101590000000000000E0180402000000000718200E
:1015A000400000020418E00000000040201807007E
:1015B0000000404080F0804040000202010F010224
:1015C0000200000000F0000000000101011F010105
:1015D0000100000000000000000080B0700000006A
:1015E00000000000000000000000000101010101F6
:1015F0000101000000000000000000303000000089
:10160000000000000000806018040060180601005F
:10161000000000E010080810E000000F102020106B
:101620000F00001010F8000000000020203F2020D4
:10163000000000700808088870000030282422216B
:101640003000003008888848300000182020201121
:101650000E000000C02010F8000000070424243F02
:10166000240000F8088888080800001921202011AB
:101670000E0000E0108888180000000F11202011D3
:101680000E0000380808C83808000000003F0000BD
:1016900000000070880808887000001C22212122A8
:1016A0001C0000E010080810E000000031222211A8
:1016B0000F00000000C0C00000000000003030003B
:1016C00000000000008000000000000080600000BA
:1016D00000000000804020100800000102040810F3
:1016E0002000404040404040400004040404040402
:1016F00004000008102040800000002010080402B0
:101700000100007048080808F000000000303601B1
:101710000000C030C828E810E00007182724231470
:101720000B000000C038E0000000203C230202272C
:10173000382008F8888888700000203F2020201179
:101740000E00C030080808083800071820202010B4
:10175000080008F808080810E000203F20202010AA
:101760000F0008F88888E8081000203F2020232078
:10177000180008F88888E8081000203F20000300BF
:101780000000C03008080838000007182020221E7A
:10179000020008F808000008F808203F2101012194
:1017A0003F20000808F8080800000020203F202003
:1017B000000000000808F8080800C08080807F0052
:1017C000000008F888C028180800203F20012638AB
:1017D000200008F8080000000000203F2020202002
:1017E000300008F8F800F8F80800203F003F003FFC
:1017F000200008F830C00008F808203F2000071833
:101800003F00E01008080810E0000F102020201012
:101810000F0008F808080808F000203F2101010126
:101820000000E01008080810E0000F1824243850C9
:101830004F0008F8888888887000203F2000030C3B
:101840003020007088080808380000382021212244
:101850001C00180808F8080818000000203F2000A5
:10186000000008F808000008F808001F20202020C9
:101870001F000878880000C83808000007380E01EB
:101880000000F80800F80008F800033C0700073CD7
:101890000300081868808068180820302C03032C87
:1018A00030200838C800C83808000000203F200059
:1018B000000010080808C838080020382621202019
:1018C0001800000000FE020202000000007F4040FD
:1018D0004000000C30C0000000000000000106388D
:1018E000C00000020202FE000000004040407F00F5
:1018F00000000000040202020400000000000000DA
:1019000000000000000000000000808080808080D7
:1019100080800002020400000000000000000000BF
:101920000000000080808080000000192422222214
:101930003F2008F8008080000000003F11202011A7
:101940000E000000008080800000000E112020208A
:101950001100000000808088F800000E1120201087
:101960003F200000808080800000001F2222222271
:101970001300008080F0888888180020203F2020F5
:1019800000000000808080808000006B949494931D
:10199000600008F8008080800000203F21000020C7
:1019A0003F2000809898000000000020203F202069
:1019B0000000000000809898000000C08080807FB8
:1019C000000008F8000080808000203F24022D30B5
:1019D0002000000808F8000000000020203F202020
:1019E00000008080808080808000203F20003F2099
:1019F000003F8080008080800000203F2100002088
:101A00003F200000808080800000001F20202020D8
:101A10001F00808000808000000080FFA120201136
:101A20000E000000008080808000000E112020A0A9
:101A3000FF80808080008080800020203F21200067
:101A40000100000080808080800000332424242452
:101A50001900008080E0808000000000001F20202E
:101A600000008080000000808000001F20202010E7
:101A70003F20808080000080808000010E300806BA
:101A8000010080800080008080800F300C030C30CB
:101A90000F0000808000808080000020312E0E31F9
:101AA0002000808080000080808080818E701806F9
:101AB000010000808080808080000021302C222165
:101AC000300000000000807C020200000000003FA7
:101AD000404000000000FF00000000000000FF0088
:101AE00000000002027C800000000040403F000037
:101AF00000000006010102020404000000000000D2
:101B0000000000FEFEFEFEFEFE00007F7F7F7F7F66
:101B10007F0000FEFEFEFEFEFE00007F7F7F7F7FD7
:101B20007F000000441B0008000000209402000019
:101B300036020008801B00089402002064040000A4
:101B40007C0D0008520104FFF0000801FF015B3F1B
:101B500010B503A201210320F1F76CFB10BD8E48E4
:101B6000656C6C6F2C2053544D33322130110102BF
:101B70000304010203040607080902040608000022
:04000005080000ED02
:00000001FF
