:020000040800F2
:100000008006002005010008670400085F0400085E
:100010006304000887010008C10800080000000010
:100020000000000000000000000000007107000850
:100030008B010008000000004D0700085D08000863
:100040001F0100081F0100081F0100081F01000810
:100050001F0100081F0100081F0100081F01000800
:100060001F0100081F0100081F0100081F010008F0
:100070001F0100081F0100081F0100081F010008E0
:100080001F0100081F0100081F0100081F010008D0
:100090001F0100081F0100081F0100081F010008C0
:1000A0001F0100081F0100081F0100081F010008B0
:1000B0001F0100081F0100081F0100081F010008A0
:1000C0001F0100081F0100081F0100081F01000890
:1000D0001F0100081F0100081F0100081F01000880
:1000E0001F0100081F0100081F010008DFF810D0E1
:1000F00000F01AF800480047E5080008AFF3008058
:10010000800600200648804706480047FEE7FEE7D5
:10011000FEE7FEE7FEE7FEE7FEE7FEE7FEE7FEE7B7
:1001200061080008ED000008064C074D06E0E06895
:1001300040F0010394E8070098471034AC42F6D32E
:10014000FFF7D8FF541000087410000830B58C1861
:1001500010F8012B12F00F0301D110F8013B120926
:1001600006D110F8012B03E010F8015B01F8015BE8
:100170005B1EF9D101E001F8013B521EFBD1A14207
:10018000E6D3002030BD00BFFEE7704700B5034650
:1001900003E04FF47A7000F005F8181EA3F1010394
:1001A000F7D100BD00EBC001C9004FF0E022516162
:1001B000002191610521116100BF4FF0E021096923
:1001C00001F480310029F8D004214FF0E0221161C0
:1001D000704700000149C8607047000000200240DD
:1001E00030B5044604254FF4302000F089F8054668
:1001F000042D17D10C48006940F002000A4908613B
:1002000008464461006940F0400008614FF4302026
:1002100000F076F805460448006941F6FD71084093
:1002200001490861284630BD0020024004200B49E6
:10023000C96801F0010109B101200EE00749C96850
:1002400001F0040109B1022007E00449C96801F086
:10025000100109B1032000E0042070470020024093
:100260000348006940F080000149086170470000C0
:10027000002002400549096821F01001034A11607D
:1002800011460968014311607047000000200240D8
:1002900070B504460D460426F00200F031F806461B
:1002A000042E11D10948006940F001000749086196
:1002B0002580F00200F024F806460448006941F663
:1002C000FE71084001490861304670BD00200240BF
:1002D00001460020034A106800F03800084310600F
:1002E000704700000020024002480349486003486C
:1002F000486070472301674500200240AB89EFCD7D
:1003000000B502460423FFF791FF034603E0FFF721
:100310008DFF0346521E012B01D1002AF7D102B9ED
:100320000523184600BD2DE9F041024600250026B0
:10033000002000230024002791F803C00CF00F05D3
:1003400091F803C00CF0100CBCF1000F03D091F831
:1003500002C04CEA050591F800C0BCF1000F31D095
:10036000146800202BE04FF0010C0CFA00F3B1F8F8
:1003700000C00CEA03069E4220D183004FF00F0C10
:100380000CFA03F7BC4305FA03FC4CEA040491F8A9
:1003900003C0BCF1280F06D14FF0010C0CFA00FC91
:1003A000C2F814C00AE091F803C0BCF1480F05D1AF
:1003B0004FF0010C0CFA00FCC2F810C0401C0828D9
:1003C000D1D31460B1F800C0BCF1FF0F34DD546824
:1003D00000202EE000F1080C4FF0010808FA0CF3A1
:1003E000B1F800C00CEA03069E4221D183004FF011
:1003F0000F0C0CFA03F7BC4305FA03FC4CEA0404A7
:1004000091F803C0BCF1280F05D100F1080C08FADF
:100410000CF8C2F8148091F803C0BCF1480F07D162
:1004200000F1080C4FF0010808FA0CF8C2F810802F
:10043000401C0828CED35460BDE8F081416170476C
:10044000016170474FF6FF71018002218170042124
:10045000C17070470AB1016100E04161704700BF9F
:10046000FEE700BFFEE7704770B500240EE00021F4
:10047000204600F0E6F8002504E0002000F056F9E0
:10048000681CC5B2802DF8DB601CC4B2082CEEDB02
:1004900070BD000008B50121082000F059F91420B2
:1004A0008DF8030003208DF802004FF48070ADF842
:1004B000000069460A48FFF736FF4FF40070ADF8B8
:1004C000000069460648FFF72EFF0122110204488A
:1004D000FFF7C0FF012251020148FFF7BBFF08BD33
:1004E000000C014070B50546002415E08020204135
:1004F00000EA05024FF400710E48FFF7ABFF01223E
:1005000011020C48FFF7A6FF00224FF48071094842
:10051000FFF7A0FF601CC4B2082CE7DB0122110228
:100520000448FFF797FF00224FF480710148FFF75E
:1005300091FF70BD000C014010B5012251020A4824
:10054000FFF788FF012211020748FFF783FF00220F
:100550004FF400710448FFF77DFF00224FF48071D3
:100560000148FFF777FF10BD000C014010B50022D5
:100570004FF400710648FFF76DFF01221102044895
:10058000FFF768FF012251020148FFF763FF10BD2A
:10059000000C014070B5002406E0002500E06D1C51
:1005A000B5F57A7FFBD3641CB4F57A7FF5D3FFF7FA
:1005B00071FFAE2000F0AAF8D52000F0A7F8802047
:1005C00000F0A4F8A82000F0A1F83F2000F09EF869
:1005D000D32000F09BF8002000F098F8402000F0B5
:1005E00095F8A12000F092F8C82000F08FF8DA20EA
:1005F00000F08CF8122000F089F8812000F086F8D5
:10060000CF2000F083F8D92000F080F8F12000F02E
:100610007DF8DB2000F07AF8302000F077F8A42095
:1006200000F074F8A62000F071F88D2000F06EF84C
:10063000142000F06BF8AF2000F068F8FFF714FF0B
:1006400070BD70B505460C4645F0B00000F05EF890
:10065000102141EA141000F059F804F00F0000F0E6
:1006600055F870BD2DE9F04106460F4615467A1E35
:10067000D206110E721E5206100EFFF7E2FF002482
:1006800010E0A5F12001164A02EB0111085D00F00F
:100690004DF8A5F12000124901EB001010F804807C
:1006A000601CC4B2082CECDB7A1ED206110E721E3E
:1006B000012303EB4202D0B2FFF7C3FF00240BE09B
:1006C000A5F12001064A02EB011204F10801505C79
:1006D00000F02CF8601CC4B2082CF1DBBDE8F081FE
:1006E000420A00082DE9F04107460E46154600244F
:1006F00007E02A5D3019C1B23846FFF7B3FF601C2E
:10070000C4B2285D0028F4D1BDE8F08110B50446DC
:10071000FFF712FF7820FFF7E5FE0020FFF7E2FE6B
:100720002046FFF7DFFEFFF721FF10BD10B504469E
:10073000FFF702FF7820FFF7D5FE4020FFF7D2FE3B
:100740002046FFF7CFFEFFF711FF10BD70470000F6
:1007500029B1064A92690243044B9A6104E0034AB4
:1007600092698243014B9A61704700000010024079
:10077000704710B500F002F810BD00000CB5002065
:10078000019000903348006840F48030314908609F
:1007900000BF3048006800F4003000900198401C11
:1007A0000190009818B90198B0F5A06FF1D12948CF
:1007B000006800F4003010B10120009001E000203A
:1007C00000900098012843D12348006840F01000B1
:1007D000214908600846006820F0030008600846C8
:1007E000006840F0020008601A48406819494860F3
:1007F0000846406848600846406840F480604860A9
:100800000846406820F47C1048600846406840F480
:10081000E81048600846006840F08070086000BF3B
:100820000C48006800F000700028F9D009484068C2
:1008300020F00300074948600846406840F0020085
:10084000486000BF0348406800F00C000828F9D158
:100850000CBD000000100240002002407047000064
:1008600010B51348006840F00100114908600846BF
:100870004068104908400E494860084600680E4923
:1008800008400B4908600846006820F48020086092
:100890000846406820F4FE0048604FF41F0088605E
:1008A000FFF767FF4FF000600449086010BD0000CB
:1008B000001002400000FFF8FFFFF6FE08ED00E028
:1008C00000BFFEE702E008C8121F08C1002AFAD1E3
:1008D00070477047002001E001C1121F002AFBD1C0
:1008E0007047000008B500246846FFF7ABFD012102
:1008F0000820FFF72DFF4020ADF8000010208DF8F4
:10090000030003208DF8020069463648FFF70BFD0F
:1009100040213448FFF792FD8020ADF80000694681
:100920003048FFF700FD80212E48FFF789FDFFF7D3
:1009300031FE0220FFF7CCFC0120FFF79BFCFFF704
:10094000D3FC3420FFF746FC2748FFF749FC00BFE3
:1009500008E0264A32F81410234A02EB4400FFF75D
:1009600097FC641C102CF4D3FFF77AFC20A2012121
:100970000846FFF7B7FE33E021480078214909789F
:10098000884220D000251BE005EB45001E4951F8A8
:100990002000A0B105EB450051F820001949097865
:1009A00088420CD105EB4501174A02EB81014868EA
:1009B00000F040F8134800781149087002E06D1CFF
:1009C000322DE1DB0CE011A201210320FFF78AFEAA
:1009D0004FF47A70FFF7DAFB0B49486800F02AF809
:1009E000CAE70000000C014000F000085E02002091
:1009F00048656C6C6F2C2053544D3332210000003D
:100A00005C02002058020020000000204E6F206190
:100A10007070000010B503A201210320FFF762FEF1
:100A200010BD000048656C6C6F2C2053544D333260
:100A30002100000070B5044644F001042546A84793
:100A400070BD000000000000000000000000000079
:100A50000000000000F8000000000000003330003B
:100A6000000000100C06100C060000000000000042
:100A7000000040C07840C0784000043F04043F04B8
:100A80000400007088FC08300000001820FF211EC0
:100A90000000F008F000E018000000211C031E21F7
:100AA0001E0000F00888700000001E212324192772
:100AB000211010160E0000000000000000000000D1
:100AC0000000000000E018040200000000071820E9
:100AD000400000020418E000000000402018070059
:100AE0000000404080F0804040000202010F0102FF
:100AF0000200000000F0000000000101011F0101E0
:100B00000100000000000000000080B07000000044
:100B100000000000000000000000000101010101D0
:100B20000101000000000000000000303000000063
:100B3000000000000000806018040060180601003A
:100B4000000000E010080810E000000F1020201046
:100B50000F00001010F8000000000020203F2020AF
:100B60000000007008080888700000302824222146
:100B700030000030088888483000001820202011FC
:100B80000E000000C02010F8000000070424243FDD
:100B9000240000F808888808080000192120201186
:100BA0000E0000E0108888180000000F11202011AE
:100BB0000E0000380808C83808000000003F000098
:100BC00000000070880808887000001C2221212283
:100BD0001C0000E010080810E00000003122221183
:100BE0000F00000000C0C000000000000030300016
:100BF0000000000000800000000000008060000095
:100C000000000000804020100800000102040810CD
:100C100020004040404040404000040404040404DC
:100C2000040000081020408000000020100804028A
:100C30000100007048080808F0000000003036018C
:100C40000000C030C828E810E0000718272423144B
:100C50000B000000C038E0000000203C2302022707
:100C6000382008F8888888700000203F2020201154
:100C70000E00C0300808080838000718202020108F
:100C8000080008F808080810E000203F2020201085
:100C90000F0008F88888E8081000203F2020232053
:100CA000180008F88888E8081000203F200003009A
:100CB0000000C03008080838000007182020221E55
:100CC000020008F808000008F808203F210101216F
:100CD0003F20000808F8080800000020203F2020DE
:100CE000000000000808F8080800C08080807F002D
:100CF000000008F888C028180800203F2001263886
:100D0000200008F8080000000000203F20202020DC
:100D1000300008F8F800F8F80800203F003F003FD6
:100D2000200008F830C00008F808203F200007180D
:100D30003F00E01008080810E0000F1020202010ED
:100D40000F0008F808080808F000203F2101010101
:100D50000000E01008080810E0000F1824243850A4
:100D60004F0008F8888888887000203F2000030C16
:100D7000302000708808080838000038202121221F
:100D80001C00180808F8080818000000203F200080
:100D9000000008F808000008F808001F20202020A4
:100DA0001F000878880000C83808000007380E01C6
:100DB0000000F80800F80008F800033C0700073CB2
:100DC0000300081868808068180820302C03032C62
:100DD00030200838C800C83808000000203F200034
:100DE000000010080808C8380800203826212020F4
:100DF0001800000000FE020202000000007F4040D8
:100E00004000000C30C00000000000000001063867
:100E1000C00000020202FE000000004040407F00CF
:100E200000000000040202020400000000000000B4
:100E300000000000000000000000808080808080B2
:100E4000808000020204000000000000000000009A
:100E500000000000808080800000001924222222EF
:100E60003F2008F8008080000000003F1120201182
:100E70000E000000008080800000000E1120202065
:100E80001100000000808088F800000E1120201062
:100E90003F200000808080800000001F222222224C
:100EA0001300008080F0888888180020203F2020D0
:100EB00000000000808080808000006B94949493F8
:100EC000600008F8008080800000203F21000020A2
:100ED0003F2000809898000000000020203F202044
:100EE0000000000000809898000000C08080807F93
:100EF000000008F8000080808000203F24022D3090
:100F00002000000808F8000000000020203F2020FA
:100F100000008080808080808000203F20003F2073
:100F2000003F8080008080800000203F2100002062
:100F30003F200000808080800000001F20202020B3
:100F40001F00808000808000000080FFA120201111
:100F50000E000000008080808000000E112020A084
:100F6000FF80808080008080800020203F21200042
:100F7000010000008080808080000033242424242D
:100F80001900008080E0808000000000001F202009
:100F900000008080000000808000001F20202010C2
:100FA0003F20808080000080808000010E30080695
:100FB000010080800080008080800F300C030C30A6
:100FC0000F0000808000808080000020312E0E31D4
:100FD0002000808080000080808080818E701806D4
:100FE000010000808080808080000021302C222140
:100FF000300000000000807C020200000000003F82
:10100000404000000000FF00000000000000FF0062
:1010100000000002027C800000000040403F000011
:1010200000000006010102020404000000000000AC
:10103000000000FEFEFEFEFEFE00007F7F7F7F7F41
:101040007F0000FEFEFEFEFEFE00007F7F7F7F7FB2
:101050007F000000741000080000002080020000E3
:101060004C0100089C1000088002002000040000D1
:10107000D4080008520104FFF0000801FF015B3FA3
:1010800010B503A201210320F1F76CFB10BD6E48DF
:0C109000656C6C6F2C2053544D333221E2
:04000005080000ED02
:00000001FF
